{
  "address": "0x0cbaAEc376EF1Cd29fede813E0fcd9073977899b",
  "abi": [
    {
      "inputs": [
        {
          "internalType": "address",
          "name": "_gelatoRelay",
          "type": "address"
        },
        {
          "internalType": "contract ILensHub",
          "name": "_lensHub",
          "type": "address"
        },
        {
          "internalType": "uint256",
          "name": "_koruDaoProfileId",
          "type": "uint256"
        }
      ],
      "stateMutability": "nonpayable",
      "type": "constructor"
    },
    {
      "anonymous": false,
      "inputs": [
        {
          "indexed": true,
          "internalType": "address",
          "name": "user",
          "type": "address"
        },
        {
          "indexed": true,
          "internalType": "uint256",
          "name": "token",
          "type": "uint256"
        },
        {
          "indexed": true,
          "internalType": "uint256[]",
          "name": "followTokenIds",
          "type": "uint256[]"
        },
        {
          "indexed": false,
          "internalType": "uint256",
          "name": "time",
          "type": "uint256"
        }
      ],
      "name": "LogFollow",
      "type": "event"
    },
    {
      "anonymous": false,
      "inputs": [
        {
          "indexed": true,
          "internalType": "address",
          "name": "user",
          "type": "address"
        },
        {
          "indexed": true,
          "internalType": "uint256",
          "name": "token",
          "type": "uint256"
        },
        {
          "indexed": true,
          "internalType": "uint256",
          "name": "pubId",
          "type": "uint256"
        },
        {
          "indexed": false,
          "internalType": "uint256",
          "name": "time",
          "type": "uint256"
        }
      ],
      "name": "LogMirror",
      "type": "event"
    },
    {
      "anonymous": false,
      "inputs": [
        {
          "indexed": true,
          "internalType": "address",
          "name": "user",
          "type": "address"
        },
        {
          "indexed": true,
          "internalType": "uint256",
          "name": "token",
          "type": "uint256"
        },
        {
          "indexed": true,
          "internalType": "uint256",
          "name": "pubId",
          "type": "uint256"
        },
        {
          "indexed": false,
          "internalType": "uint256",
          "name": "time",
          "type": "uint256"
        }
      ],
      "name": "LogPost",
      "type": "event"
    },
    {
      "inputs": [
        {
          "internalType": "enum IKoruDao.Action",
          "name": "",
          "type": "uint8"
        }
      ],
      "name": "actionRestriction",
      "outputs": [
        {
          "internalType": "address",
          "name": "",
          "type": "address"
        }
      ],
      "stateMutability": "view",
      "type": "function"
    },
    {
      "inputs": [
        {
          "internalType": "uint256",
          "name": "_profileId",
          "type": "uint256"
        },
        {
          "internalType": "bytes",
          "name": "_followData",
          "type": "bytes"
        }
      ],
      "name": "follow",
      "outputs": [],
      "stateMutability": "nonpayable",
      "type": "function"
    },
    {
      "inputs": [
        {
          "internalType": "address",
          "name": "forwarder",
          "type": "address"
        }
      ],
      "name": "isTrustedForwarder",
      "outputs": [
        {
          "internalType": "bool",
          "name": "",
          "type": "bool"
        }
      ],
      "stateMutability": "view",
      "type": "function"
    },
    {
      "inputs": [],
      "name": "koruDaoProfileId",
      "outputs": [
        {
          "internalType": "uint256",
          "name": "",
          "type": "uint256"
        }
      ],
      "stateMutability": "view",
      "type": "function"
    },
    {
      "inputs": [],
      "name": "lensHub",
      "outputs": [
        {
          "internalType": "contract ILensHub",
          "name": "",
          "type": "address"
        }
      ],
      "stateMutability": "view",
      "type": "function"
    },
    {
      "inputs": [
        {
          "components": [
            {
              "internalType": "uint256",
              "name": "profileId",
              "type": "uint256"
            },
            {
              "internalType": "uint256",
              "name": "profileIdPointed",
              "type": "uint256"
            },
            {
              "internalType": "uint256",
              "name": "pubIdPointed",
              "type": "uint256"
            },
            {
              "internalType": "bytes",
              "name": "referenceModuleData",
              "type": "bytes"
            },
            {
              "internalType": "address",
              "name": "referenceModule",
              "type": "address"
            },
            {
              "internalType": "bytes",
              "name": "referenceModuleInitData",
              "type": "bytes"
            }
          ],
          "internalType": "struct DataTypes.MirrorData",
          "name": "_mirrorData",
          "type": "tuple"
        }
      ],
      "name": "mirror",
      "outputs": [],
      "stateMutability": "nonpayable",
      "type": "function"
    },
    {
      "inputs": [
        {
          "internalType": "address",
          "name": "",
          "type": "address"
        },
        {
          "internalType": "address",
          "name": "",
          "type": "address"
        },
        {
          "internalType": "uint256",
          "name": "",
          "type": "uint256"
        },
        {
          "internalType": "bytes",
          "name": "",
          "type": "bytes"
        }
      ],
      "name": "onERC721Received",
      "outputs": [
        {
          "internalType": "bytes4",
          "name": "",
          "type": "bytes4"
        }
      ],
      "stateMutability": "nonpayable",
      "type": "function"
    },
    {
      "inputs": [
        {
          "components": [
            {
              "internalType": "uint256",
              "name": "profileId",
              "type": "uint256"
            },
            {
              "internalType": "string",
              "name": "contentURI",
              "type": "string"
            },
            {
              "internalType": "address",
              "name": "collectModule",
              "type": "address"
            },
            {
              "internalType": "bytes",
              "name": "collectModuleInitData",
              "type": "bytes"
            },
            {
              "internalType": "address",
              "name": "referenceModule",
              "type": "address"
            },
            {
              "internalType": "bytes",
              "name": "referenceModuleInitData",
              "type": "bytes"
            }
          ],
          "internalType": "struct DataTypes.PostData",
          "name": "_postData",
          "type": "tuple"
        }
      ],
      "name": "post",
      "outputs": [],
      "stateMutability": "nonpayable",
      "type": "function"
    },
    {
      "inputs": [
        {
          "internalType": "enum IKoruDao.Action",
          "name": "_action",
          "type": "uint8"
        },
        {
          "internalType": "address",
          "name": "_restriction",
          "type": "address"
        }
      ],
      "name": "setActionRestriction",
      "outputs": [],
      "stateMutability": "nonpayable",
      "type": "function"
    },
    {
      "inputs": [
        {
          "internalType": "uint256",
          "name": "_profileId",
          "type": "uint256"
        }
      ],
      "name": "setDefaultProfile",
      "outputs": [],
      "stateMutability": "nonpayable",
      "type": "function"
    },
    {
      "inputs": [
        {
          "internalType": "address",
          "name": "to",
          "type": "address"
        },
        {
          "internalType": "uint256",
          "name": "profileId",
          "type": "uint256"
        }
      ],
      "name": "transferLensHandle",
      "outputs": [],
      "stateMutability": "nonpayable",
      "type": "function"
    }
  ],
  "transactionHash": "0x3eb51833b131f53bb3ec9167bd0c2c1861990c571e5c4b892b20ddca9e26e172",
  "args": [
    "0xBf175FCC7086b4f9bd59d5EAE8eA67b8f940DE0d",
    "0x60Ae865ee4C725cd04353b5AAb364553f56ceF82",
    "28100"
  ],
  "numDeployments": 2,
  "solcInputHash": "529e06143c6464d1e91fe2cd19fb6076",
  "bytecode": "0x60e06040523480156200001157600080fd5b506040516200229b3803806200229b83398181016040528101906200003791906200019c565b828073ffffffffffffffffffffffffffffffffffffffff1660808173ffffffffffffffffffffffffffffffffffffffff1681525050508173ffffffffffffffffffffffffffffffffffffffff1660a08173ffffffffffffffffffffffffffffffffffffffff16815250508060c08181525050505050620001f8565b600080fd5b600073ffffffffffffffffffffffffffffffffffffffff82169050919050565b6000620000e482620000b7565b9050919050565b620000f681620000d7565b81146200010257600080fd5b50565b6000815190506200011681620000eb565b92915050565b60006200012982620000d7565b9050919050565b6200013b816200011c565b81146200014757600080fd5b50565b6000815190506200015b8162000130565b92915050565b6000819050919050565b620001768162000161565b81146200018257600080fd5b50565b60008151905062000196816200016b565b92915050565b600080600060608486031215620001b857620001b7620000b2565b5b6000620001c88682870162000105565b9350506020620001db868287016200014a565b9250506040620001ee8682870162000185565b9150509250925092565b60805160a05160c0516120426200025960003960008181610280015281816109050152610971015260008181610396015281816106aa01528181610a8801528181610b7d01528181610c160152610d1e015260006107c101526120426000f3fe608060405234801561001057600080fd5b50600436106100a95760003560e01c806384af9a921161007157806384af9a9214610162578063963ff14114610180578063b02cfdc31461019c578063caa88f9e146101ba578063f1b2f8bc146101d6578063fb706254146101f2576100a9565b8063150b7a02146100ae5780632faeed81146100de57806340c8370c146100fa578063572b6c05146101165780636f3bca2114610146575b600080fd5b6100c860048036038101906100c391906110fd565b610222565b6040516100d591906111bb565b60405180910390f35b6100f860048036038101906100f391906111fa565b610236565b005b610114600480360381019061010f91906112a3565b610489565b005b610130600480360381019061012b9190611303565b6107bd565b60405161013d919061134b565b60405180910390f35b610160600480360381019061015b919061138b565b610815565b005b61016a610903565b60405161017791906113da565b60405180910390f35b61019a60048036038101906101959190611414565b610927565b005b6101a4610b7b565b6040516101b191906114bc565b60405180910390f35b6101d460048036038101906101cf91906114d7565b610b9f565b005b6101f060048036038101906101eb9190611517565b610ca7565b005b61020c60048036038101906102079190611544565b610daa565b6040516102199190611580565b60405180910390f35b600063150b7a0260e01b9050949350505050565b61023f336107bd565b61027e576040517f08c379a0000000000000000000000000000000000000000000000000000000008152600401610275906115f8565b60405180910390fd5b7f00000000000000000000000000000000000000000000000000000000000000008160000135146102e4576040517f08c379a00000000000000000000000000000000000000000000000000000000081526004016102db90611664565b60405180910390fd5b60006102ee610ddd565b905060006102fc6002610e0f565b905060008173ffffffffffffffffffffffffffffffffffffffff16635f183e79846002808111156103305761032f611684565b5b6040518363ffffffff1660e01b815260040161034d9291906116b3565b6020604051808303816000875af115801561036c573d6000803e3d6000fd5b505050506040513d601f19601f8201168201806040525081019061039091906116f1565b905060007f000000000000000000000000000000000000000000000000000000000000000073ffffffffffffffffffffffffffffffffffffffff16632faeed81866040518263ffffffff1660e01b81526004016103ed91906118de565b6020604051808303816000875af115801561040c573d6000803e3d6000fd5b505050506040513d601f19601f8201168201806040525081019061043091906116f1565b905080828573ffffffffffffffffffffffffffffffffffffffff167fe1289db23a10f53339637d9649c2ee51b4461d19877697e53870506bf33cff2b4260405161047a91906113da565b60405180910390a45050505050565b610492336107bd565b6104d1576040517f08c379a00000000000000000000000000000000000000000000000000000000081526004016104c8906115f8565b60405180910390fd5b60006104db610ddd565b905060006104e96001610e0f565b905060008173ffffffffffffffffffffffffffffffffffffffff16635f183e79846001600281111561051e5761051d611684565b5b6040518363ffffffff1660e01b815260040161053b9291906116b3565b6020604051808303816000875af115801561055a573d6000803e3d6000fd5b505050506040513d601f19601f8201168201806040525081019061057e91906116f1565b90506000600167ffffffffffffffff81111561059d5761059c610fd2565b5b6040519080825280602002602001820160405280156105cb5781602001602082028036833780820191505090505b5090506000600167ffffffffffffffff8111156105eb576105ea610fd2565b5b60405190808252806020026020018201604052801561061e57816020015b60608152602001906001900390816106095790505b509050878260008151811061063657610635611900565b5b60200260200101818152505086868080601f016020809104026020016040519081016040528093929190818152602001838380828437600081840152601f19601f820116905080830192505050505050508160008151811061069b5761069a611900565b5b602002602001018190525060007f000000000000000000000000000000000000000000000000000000000000000073ffffffffffffffffffffffffffffffffffffffff1663fb78ae6c84846040518363ffffffff1660e01b8152600401610703929190611b17565b6000604051808303816000875af1158015610722573d6000803e3d6000fd5b505050506040513d6000823e3d601f19601f8201168201806040525081019061074b9190611c11565b90508060405161075b9190611cea565b6040518091039020848773ffffffffffffffffffffffffffffffffffffffff167f6ca6bbf216eed80adfcac490fb89f2cbf3ffd707781aaf728bbdfb6d5ccfc1d1426040516107aa91906113da565b60405180910390a4505050505050505050565b60007f000000000000000000000000000000000000000000000000000000000000000073ffffffffffffffffffffffffffffffffffffffff168273ffffffffffffffffffffffffffffffffffffffff16149050919050565b61081d610ede565b73ffffffffffffffffffffffffffffffffffffffff163373ffffffffffffffffffffffffffffffffffffffff161461088a576040517f08c379a000000000000000000000000000000000000000000000000000000000815260040161088190611d4d565b60405180910390fd5b806000808460028111156108a1576108a0611684565b5b60028111156108b3576108b2611684565b5b815260200190815260200160002060006101000a81548173ffffffffffffffffffffffffffffffffffffffff021916908373ffffffffffffffffffffffffffffffffffffffff1602179055505050565b7f000000000000000000000000000000000000000000000000000000000000000081565b610930336107bd565b61096f576040517f08c379a0000000000000000000000000000000000000000000000000000000008152600401610966906115f8565b60405180910390fd5b7f00000000000000000000000000000000000000000000000000000000000000008160000135146109d5576040517f08c379a00000000000000000000000000000000000000000000000000000000081526004016109cc90611db9565b60405180910390fd5b60006109df610ddd565b905060006109ed6000610e0f565b905060008173ffffffffffffffffffffffffffffffffffffffff16635f183e798460006002811115610a2257610a21611684565b5b6040518363ffffffff1660e01b8152600401610a3f9291906116b3565b6020604051808303816000875af1158015610a5e573d6000803e3d6000fd5b505050506040513d601f19601f82011682018060405250810190610a8291906116f1565b905060007f000000000000000000000000000000000000000000000000000000000000000073ffffffffffffffffffffffffffffffffffffffff1663963ff141866040518263ffffffff1660e01b8152600401610adf9190611f47565b6020604051808303816000875af1158015610afe573d6000803e3d6000fd5b505050506040513d601f19601f82011682018060405250810190610b2291906116f1565b905080828573ffffffffffffffffffffffffffffffffffffffff167fb3de7ef76dc0d0512b40164c07da30a2bd66a76a55c8748f0c2fe7bcc6cc39e142604051610b6c91906113da565b60405180910390a45050505050565b7f000000000000000000000000000000000000000000000000000000000000000081565b610ba7610ede565b73ffffffffffffffffffffffffffffffffffffffff163373ffffffffffffffffffffffffffffffffffffffff1614610c14576040517f08c379a0000000000000000000000000000000000000000000000000000000008152600401610c0b90611d4d565b60405180910390fd5b7f000000000000000000000000000000000000000000000000000000000000000073ffffffffffffffffffffffffffffffffffffffff166342842e0e3084846040518463ffffffff1660e01b8152600401610c7193929190611f69565b600060405180830381600087803b158015610c8b57600080fd5b505af1158015610c9f573d6000803e3d6000fd5b505050505050565b610caf610ede565b73ffffffffffffffffffffffffffffffffffffffff163373ffffffffffffffffffffffffffffffffffffffff1614610d1c576040517f08c379a0000000000000000000000000000000000000000000000000000000008152600401610d1390611d4d565b60405180910390fd5b7f000000000000000000000000000000000000000000000000000000000000000073ffffffffffffffffffffffffffffffffffffffff1663f1b2f8bc826040518263ffffffff1660e01b8152600401610d7591906113da565b600060405180830381600087803b158015610d8f57600080fd5b505af1158015610da3573d6000803e3d6000fd5b5050505050565b60006020528060005260406000206000915054906101000a900473ffffffffffffffffffffffffffffffffffffffff1681565b6000610de8336107bd565b15610dfc57601436033560601c9050610e0b565b610e04610f07565b9050610e0c565b5b90565b6000806000836002811115610e2757610e26611684565b5b6002811115610e3957610e38611684565b5b815260200190815260200160002060009054906101000a900473ffffffffffffffffffffffffffffffffffffffff169050600073ffffffffffffffffffffffffffffffffffffffff168173ffffffffffffffffffffffffffffffffffffffff1603610ed9576040517f08c379a0000000000000000000000000000000000000000000000000000000008152600401610ed090611fec565b60405180910390fd5b919050565b60007fb53127684a568b3173ae13b9f8a6016e243e63b6e8ee1178d6a717850b5d610354905090565b600033905090565b6000604051905090565b600080fd5b600080fd5b600073ffffffffffffffffffffffffffffffffffffffff82169050919050565b6000610f4e82610f23565b9050919050565b610f5e81610f43565b8114610f6957600080fd5b50565b600081359050610f7b81610f55565b92915050565b6000819050919050565b610f9481610f81565b8114610f9f57600080fd5b50565b600081359050610fb181610f8b565b92915050565b600080fd5b600080fd5b6000601f19601f8301169050919050565b7f4e487b7100000000000000000000000000000000000000000000000000000000600052604160045260246000fd5b61100a82610fc1565b810181811067ffffffffffffffff8211171561102957611028610fd2565b5b80604052505050565b600061103c610f0f565b90506110488282611001565b919050565b600067ffffffffffffffff82111561106857611067610fd2565b5b61107182610fc1565b9050602081019050919050565b82818337600083830152505050565b60006110a061109b8461104d565b611032565b9050828152602081018484840111156110bc576110bb610fbc565b5b6110c784828561107e565b509392505050565b600082601f8301126110e4576110e3610fb7565b5b81356110f484826020860161108d565b91505092915050565b6000806000806080858703121561111757611116610f19565b5b600061112587828801610f6c565b945050602061113687828801610f6c565b935050604061114787828801610fa2565b925050606085013567ffffffffffffffff81111561116857611167610f1e565b5b611174878288016110cf565b91505092959194509250565b60007fffffffff0000000000000000000000000000000000000000000000000000000082169050919050565b6111b581611180565b82525050565b60006020820190506111d060008301846111ac565b92915050565b600080fd5b600060c082840312156111f1576111f06111d6565b5b81905092915050565b6000602082840312156112105761120f610f19565b5b600082013567ffffffffffffffff81111561122e5761122d610f1e565b5b61123a848285016111db565b91505092915050565b600080fd5b600080fd5b60008083601f84011261126357611262610fb7565b5b8235905067ffffffffffffffff8111156112805761127f611243565b5b60208301915083600182028301111561129c5761129b611248565b5b9250929050565b6000806000604084860312156112bc576112bb610f19565b5b60006112ca86828701610fa2565b935050602084013567ffffffffffffffff8111156112eb576112ea610f1e565b5b6112f78682870161124d565b92509250509250925092565b60006020828403121561131957611318610f19565b5b600061132784828501610f6c565b91505092915050565b60008115159050919050565b61134581611330565b82525050565b6000602082019050611360600083018461133c565b92915050565b6003811061137357600080fd5b50565b60008135905061138581611366565b92915050565b600080604083850312156113a2576113a1610f19565b5b60006113b085828601611376565b92505060206113c185828601610f6c565b9150509250929050565b6113d481610f81565b82525050565b60006020820190506113ef60008301846113cb565b92915050565b600060c0828403121561140b5761140a6111d6565b5b81905092915050565b60006020828403121561142a57611429610f19565b5b600082013567ffffffffffffffff81111561144857611447610f1e565b5b611454848285016113f5565b91505092915050565b6000819050919050565b600061148261147d61147884610f23565b61145d565b610f23565b9050919050565b600061149482611467565b9050919050565b60006114a682611489565b9050919050565b6114b68161149b565b82525050565b60006020820190506114d160008301846114ad565b92915050565b600080604083850312156114ee576114ed610f19565b5b60006114fc85828601610f6c565b925050602061150d85828601610fa2565b9150509250929050565b60006020828403121561152d5761152c610f19565b5b600061153b84828501610fa2565b91505092915050565b60006020828403121561155a57611559610f19565b5b600061156884828501611376565b91505092915050565b61157a81610f43565b82525050565b60006020820190506115956000830184611571565b92915050565b600082825260208201905092915050565b7f4b6f727544616f3a204f6e6c792047656c61746f52656c617900000000000000600082015250565b60006115e260198361159b565b91506115ed826115ac565b602082019050919050565b60006020820190508181036000830152611611816115d5565b9050919050565b7f4b6f727544616f3a204f6e6c79206d6972726f7220666f72204b6f727544616f600082015250565b600061164e60208361159b565b915061165982611618565b602082019050919050565b6000602082019050818103600083015261167d81611641565b9050919050565b7f4e487b7100000000000000000000000000000000000000000000000000000000600052602160045260246000fd5b60006040820190506116c86000830185611571565b6116d560208301846113cb565b9392505050565b6000815190506116eb81610f8b565b92915050565b60006020828403121561170757611706610f19565b5b6000611715848285016116dc565b91505092915050565b600061172d6020840184610fa2565b905092915050565b61173e81610f81565b82525050565b600080fd5b600080fd5b600080fd5b600080833560016020038436030381126117705761176f61174e565b5b83810192508235915060208301925067ffffffffffffffff82111561179857611797611744565b5b6001820236038313156117ae576117ad611749565b5b509250929050565b600082825260208201905092915050565b60006117d383856117b6565b93506117e083858461107e565b6117e983610fc1565b840190509392505050565b60006118036020840184610f6c565b905092915050565b61181481610f43565b82525050565b600060c0830161182d600084018461171e565b61183a6000860182611735565b50611848602084018461171e565b6118556020860182611735565b50611863604084018461171e565b6118706040860182611735565b5061187e6060840184611753565b85830360608701526118918382846117c7565b925050506118a260808401846117f4565b6118af608086018261180b565b506118bd60a0840184611753565b85830360a08701526118d08382846117c7565b925050508091505092915050565b600060208201905081810360008301526118f8818461181a565b905092915050565b7f4e487b7100000000000000000000000000000000000000000000000000000000600052603260045260246000fd5b600081519050919050565b600082825260208201905092915050565b6000819050602082019050919050565b60006119678383611735565b60208301905092915050565b6000602082019050919050565b600061198b8261192f565b611995818561193a565b93506119a08361194b565b8060005b838110156119d15781516119b8888261195b565b97506119c383611973565b9250506001810190506119a4565b5085935050505092915050565b600081519050919050565b600082825260208201905092915050565b6000819050602082019050919050565b600081519050919050565b60005b83811015611a33578082015181840152602081019050611a18565b83811115611a42576000848401525b50505050565b6000611a5382611a0a565b611a5d81856117b6565b9350611a6d818560208601611a15565b611a7681610fc1565b840191505092915050565b6000611a8d8383611a48565b905092915050565b6000602082019050919050565b6000611aad826119de565b611ab781856119e9565b935083602082028501611ac9856119fa565b8060005b85811015611b055784840389528151611ae68582611a81565b9450611af183611a95565b925060208a01995050600181019050611acd565b50829750879550505050505092915050565b60006040820190508181036000830152611b318185611980565b90508181036020830152611b458184611aa2565b90509392505050565b600067ffffffffffffffff821115611b6957611b68610fd2565b5b602082029050602081019050919050565b6000611b8d611b8884611b4e565b611032565b90508083825260208201905060208402830185811115611bb057611baf611248565b5b835b81811015611bd95780611bc588826116dc565b845260208401935050602081019050611bb2565b5050509392505050565b600082601f830112611bf857611bf7610fb7565b5b8151611c08848260208601611b7a565b91505092915050565b600060208284031215611c2757611c26610f19565b5b600082015167ffffffffffffffff811115611c4557611c44610f1e565b5b611c5184828501611be3565b91505092915050565b600081905092915050565b611c6e81610f81565b82525050565b6000611c808383611c65565b60208301905092915050565b6000611c978261192f565b611ca18185611c5a565b9350611cac8361194b565b8060005b83811015611cdd578151611cc48882611c74565b9750611ccf83611973565b925050600181019050611cb0565b5085935050505092915050565b6000611cf68284611c8c565b915081905092915050565b7f4e4f545f415554484f52495a4544000000000000000000000000000000000000600082015250565b6000611d37600e8361159b565b9150611d4282611d01565b602082019050919050565b60006020820190508181036000830152611d6681611d2a565b9050919050565b7f4b6f727544616f3a204f6e6c7920706f737420666f72204b6f727544616f0000600082015250565b6000611da3601e8361159b565b9150611dae82611d6d565b602082019050919050565b60006020820190508181036000830152611dd281611d96565b9050919050565b60008083356001602003843603038112611df657611df561174e565b5b83810192508235915060208301925067ffffffffffffffff821115611e1e57611e1d611744565b5b600182023603831315611e3457611e33611749565b5b509250929050565b600082825260208201905092915050565b6000611e598385611e3c565b9350611e6683858461107e565b611e6f83610fc1565b840190509392505050565b600060c08301611e8d600084018461171e565b611e9a6000860182611735565b50611ea86020840184611dd9565b8583036020870152611ebb838284611e4d565b92505050611ecc60408401846117f4565b611ed9604086018261180b565b50611ee76060840184611753565b8583036060870152611efa8382846117c7565b92505050611f0b60808401846117f4565b611f18608086018261180b565b50611f2660a0840184611753565b85830360a0870152611f398382846117c7565b925050508091505092915050565b60006020820190508181036000830152611f618184611e7a565b905092915050565b6000606082019050611f7e6000830186611571565b611f8b6020830185611571565b611f9860408301846113cb565b949350505050565b7f4b6f727544616f3a20416374696f6e206e6f7420616374697665000000000000600082015250565b6000611fd6601a8361159b565b9150611fe182611fa0565b602082019050919050565b6000602082019050818103600083015261200581611fc9565b905091905056fea26469706673582212202c2c0ed622a0196abb37438211103dda1d91b16767ef2496b2a70b29a124fa2464736f6c634300080e0033",
  "devdoc": {
    "kind": "dev",
    "methods": {
      "onERC721Received(address,address,uint256,bytes)": {
        "details": "See {IERC721Receiver-onERC721Received}. Always returns `IERC721Receiver.onERC721Received.selector`."
      }
    },
    "version": 1
  },
  "userdoc": {
    "kind": "user",
    "methods": {},
    "version": 1
  },
  "storageLayout": {
    "storage": [
      {
        "astId": 307,
        "contract": "contracts/KoruDao.sol:KoruDao",
        "label": "actionRestriction",
        "offset": 0,
        "slot": "0",
        "type": "t_mapping(t_enum(Action)639,t_address)"
      }
    ],
    "types": {
      "t_address": {
        "encoding": "inplace",
        "label": "address",
        "numberOfBytes": "20"
      },
      "t_enum(Action)639": {
        "encoding": "inplace",
        "label": "enum IKoruDao.Action",
        "numberOfBytes": "1"
      },
      "t_mapping(t_enum(Action)639,t_address)": {
        "encoding": "mapping",
        "key": "t_enum(Action)639",
        "label": "mapping(enum IKoruDao.Action => address)",
        "numberOfBytes": "32",
        "value": "t_address"
      }
    }
  }
}