{
  "address": "0xCB03138198967B6692B3696F32464919CD204BCB",
  "abi": [
    {
      "inputs": [
        {
          "internalType": "bool",
          "name": "_restricted",
          "type": "bool"
        },
        {
          "internalType": "uint256",
          "name": "_mintTime",
          "type": "uint256"
        },
        {
          "internalType": "uint256",
          "name": "_maxSupply",
          "type": "uint256"
        },
        {
          "internalType": "uint256",
          "name": "_koruDaoProfileId",
          "type": "uint256"
        },
        {
          "internalType": "uint256",
          "name": "_minPubCount",
          "type": "uint256"
        },
        {
          "internalType": "uint256",
          "name": "_minFollowers",
          "type": "uint256"
        },
        {
          "internalType": "address",
          "name": "_gelatoRelay",
          "type": "address"
        },
        {
          "internalType": "contract ILensHub",
          "name": "_lensHub",
          "type": "address"
        }
      ],
      "stateMutability": "nonpayable",
      "type": "constructor"
    },
    {
      "inputs": [
        {
          "internalType": "address",
          "name": "operator",
          "type": "address"
        }
      ],
      "name": "OperatorNotAllowed",
      "type": "error"
    },
    {
      "anonymous": false,
      "inputs": [
        {
          "indexed": true,
          "internalType": "address",
          "name": "owner",
          "type": "address"
        },
        {
          "indexed": true,
          "internalType": "address",
          "name": "approved",
          "type": "address"
        },
        {
          "indexed": true,
          "internalType": "uint256",
          "name": "tokenId",
          "type": "uint256"
        }
      ],
      "name": "Approval",
      "type": "event"
    },
    {
      "anonymous": false,
      "inputs": [
        {
          "indexed": true,
          "internalType": "address",
          "name": "owner",
          "type": "address"
        },
        {
          "indexed": true,
          "internalType": "address",
          "name": "operator",
          "type": "address"
        },
        {
          "indexed": false,
          "internalType": "bool",
          "name": "approved",
          "type": "bool"
        }
      ],
      "name": "ApprovalForAll",
      "type": "event"
    },
    {
      "anonymous": false,
      "inputs": [
        {
          "indexed": true,
          "internalType": "address",
          "name": "from",
          "type": "address"
        },
        {
          "indexed": true,
          "internalType": "address",
          "name": "to",
          "type": "address"
        },
        {
          "indexed": true,
          "internalType": "uint256",
          "name": "tokenId",
          "type": "uint256"
        }
      ],
      "name": "Transfer",
      "type": "event"
    },
    {
      "inputs": [
        {
          "internalType": "address",
          "name": "operator",
          "type": "address"
        },
        {
          "internalType": "uint256",
          "name": "tokenId",
          "type": "uint256"
        }
      ],
      "name": "approve",
      "outputs": [],
      "stateMutability": "nonpayable",
      "type": "function"
    },
    {
      "inputs": [
        {
          "internalType": "address",
          "name": "owner",
          "type": "address"
        }
      ],
      "name": "balanceOf",
      "outputs": [
        {
          "internalType": "uint256",
          "name": "",
          "type": "uint256"
        }
      ],
      "stateMutability": "view",
      "type": "function"
    },
    {
      "inputs": [],
      "name": "baseUri",
      "outputs": [
        {
          "internalType": "string",
          "name": "",
          "type": "string"
        }
      ],
      "stateMutability": "view",
      "type": "function"
    },
    {
      "inputs": [],
      "name": "gelatoRelay",
      "outputs": [
        {
          "internalType": "address",
          "name": "",
          "type": "address"
        }
      ],
      "stateMutability": "view",
      "type": "function"
    },
    {
      "inputs": [
        {
          "internalType": "uint256",
          "name": "tokenId",
          "type": "uint256"
        }
      ],
      "name": "getApproved",
      "outputs": [
        {
          "internalType": "address",
          "name": "",
          "type": "address"
        }
      ],
      "stateMutability": "view",
      "type": "function"
    },
    {
      "inputs": [
        {
          "internalType": "string",
          "name": "_name",
          "type": "string"
        },
        {
          "internalType": "string",
          "name": "_symbol",
          "type": "string"
        },
        {
          "internalType": "string",
          "name": "_baseUri",
          "type": "string"
        },
        {
          "internalType": "bool",
          "name": "_paused",
          "type": "bool"
        }
      ],
      "name": "initialize",
      "outputs": [],
      "stateMutability": "nonpayable",
      "type": "function"
    },
    {
      "inputs": [
        {
          "internalType": "address",
          "name": "owner",
          "type": "address"
        },
        {
          "internalType": "address",
          "name": "operator",
          "type": "address"
        }
      ],
      "name": "isApprovedForAll",
      "outputs": [
        {
          "internalType": "bool",
          "name": "",
          "type": "bool"
        }
      ],
      "stateMutability": "view",
      "type": "function"
    },
    {
      "inputs": [
        {
          "internalType": "address",
          "name": "_wallet",
          "type": "address"
        }
      ],
      "name": "isEligible",
      "outputs": [
        {
          "internalType": "bool",
          "name": "",
          "type": "bool"
        },
        {
          "internalType": "bool[]",
          "name": "",
          "type": "bool[]"
        }
      ],
      "stateMutability": "view",
      "type": "function"
    },
    {
      "inputs": [],
      "name": "koruDaoProfileId",
      "outputs": [
        {
          "internalType": "uint256",
          "name": "",
          "type": "uint256"
        }
      ],
      "stateMutability": "view",
      "type": "function"
    },
    {
      "inputs": [],
      "name": "lensHub",
      "outputs": [
        {
          "internalType": "contract ILensHub",
          "name": "",
          "type": "address"
        }
      ],
      "stateMutability": "view",
      "type": "function"
    },
    {
      "inputs": [
        {
          "internalType": "uint256",
          "name": "",
          "type": "uint256"
        }
      ],
      "name": "lensProfileMinted",
      "outputs": [
        {
          "internalType": "bool",
          "name": "",
          "type": "bool"
        }
      ],
      "stateMutability": "view",
      "type": "function"
    },
    {
      "inputs": [],
      "name": "maxSupply",
      "outputs": [
        {
          "internalType": "uint256",
          "name": "",
          "type": "uint256"
        }
      ],
      "stateMutability": "view",
      "type": "function"
    },
    {
      "inputs": [],
      "name": "minFollowers",
      "outputs": [
        {
          "internalType": "uint256",
          "name": "",
          "type": "uint256"
        }
      ],
      "stateMutability": "view",
      "type": "function"
    },
    {
      "inputs": [],
      "name": "minPubCount",
      "outputs": [
        {
          "internalType": "uint256",
          "name": "",
          "type": "uint256"
        }
      ],
      "stateMutability": "view",
      "type": "function"
    },
    {
      "inputs": [],
      "name": "mint",
      "outputs": [],
      "stateMutability": "nonpayable",
      "type": "function"
    },
    {
      "inputs": [],
      "name": "mintTime",
      "outputs": [
        {
          "internalType": "uint256",
          "name": "",
          "type": "uint256"
        }
      ],
      "stateMutability": "view",
      "type": "function"
    },
    {
      "inputs": [],
      "name": "name",
      "outputs": [
        {
          "internalType": "string",
          "name": "",
          "type": "string"
        }
      ],
      "stateMutability": "view",
      "type": "function"
    },
    {
      "inputs": [
        {
          "internalType": "address[]",
          "name": "_users",
          "type": "address[]"
        }
      ],
      "name": "ownerMint",
      "outputs": [],
      "stateMutability": "nonpayable",
      "type": "function"
    },
    {
      "inputs": [
        {
          "internalType": "uint256",
          "name": "tokenId",
          "type": "uint256"
        }
      ],
      "name": "ownerOf",
      "outputs": [
        {
          "internalType": "address",
          "name": "",
          "type": "address"
        }
      ],
      "stateMutability": "view",
      "type": "function"
    },
    {
      "inputs": [],
      "name": "paused",
      "outputs": [
        {
          "internalType": "bool",
          "name": "",
          "type": "bool"
        }
      ],
      "stateMutability": "view",
      "type": "function"
    },
    {
      "inputs": [],
      "name": "restricted",
      "outputs": [
        {
          "internalType": "bool",
          "name": "",
          "type": "bool"
        }
      ],
      "stateMutability": "view",
      "type": "function"
    },
    {
      "inputs": [
        {
          "internalType": "address",
          "name": "from",
          "type": "address"
        },
        {
          "internalType": "address",
          "name": "to",
          "type": "address"
        },
        {
          "internalType": "uint256",
          "name": "tokenId",
          "type": "uint256"
        }
      ],
      "name": "safeTransferFrom",
      "outputs": [],
      "stateMutability": "nonpayable",
      "type": "function"
    },
    {
      "inputs": [
        {
          "internalType": "address",
          "name": "from",
          "type": "address"
        },
        {
          "internalType": "address",
          "name": "to",
          "type": "address"
        },
        {
          "internalType": "uint256",
          "name": "tokenId",
          "type": "uint256"
        },
        {
          "internalType": "bytes",
          "name": "data",
          "type": "bytes"
        }
      ],
      "name": "safeTransferFrom",
      "outputs": [],
      "stateMutability": "nonpayable",
      "type": "function"
    },
    {
      "inputs": [
        {
          "internalType": "address",
          "name": "operator",
          "type": "address"
        },
        {
          "internalType": "bool",
          "name": "approved",
          "type": "bool"
        }
      ],
      "name": "setApprovalForAll",
      "outputs": [],
      "stateMutability": "nonpayable",
      "type": "function"
    },
    {
      "inputs": [
        {
          "internalType": "string",
          "name": "_baseUri",
          "type": "string"
        }
      ],
      "name": "setBaseUri",
      "outputs": [],
      "stateMutability": "nonpayable",
      "type": "function"
    },
    {
      "inputs": [
        {
          "internalType": "bool",
          "name": "_paused",
          "type": "bool"
        }
      ],
      "name": "setPaused",
      "outputs": [],
      "stateMutability": "nonpayable",
      "type": "function"
    },
    {
      "inputs": [
        {
          "internalType": "bytes4",
          "name": "interfaceId",
          "type": "bytes4"
        }
      ],
      "name": "supportsInterface",
      "outputs": [
        {
          "internalType": "bool",
          "name": "",
          "type": "bool"
        }
      ],
      "stateMutability": "view",
      "type": "function"
    },
    {
      "inputs": [],
      "name": "symbol",
      "outputs": [
        {
          "internalType": "string",
          "name": "",
          "type": "string"
        }
      ],
      "stateMutability": "view",
      "type": "function"
    },
    {
      "inputs": [
        {
          "internalType": "uint256",
          "name": "index",
          "type": "uint256"
        }
      ],
      "name": "tokenByIndex",
      "outputs": [
        {
          "internalType": "uint256",
          "name": "",
          "type": "uint256"
        }
      ],
      "stateMutability": "view",
      "type": "function"
    },
    {
      "inputs": [
        {
          "internalType": "address",
          "name": "owner",
          "type": "address"
        },
        {
          "internalType": "uint256",
          "name": "index",
          "type": "uint256"
        }
      ],
      "name": "tokenOfOwnerByIndex",
      "outputs": [
        {
          "internalType": "uint256",
          "name": "",
          "type": "uint256"
        }
      ],
      "stateMutability": "view",
      "type": "function"
    },
    {
      "inputs": [
        {
          "internalType": "uint256",
          "name": "tokenId",
          "type": "uint256"
        }
      ],
      "name": "tokenURI",
      "outputs": [
        {
          "internalType": "string",
          "name": "",
          "type": "string"
        }
      ],
      "stateMutability": "view",
      "type": "function"
    },
    {
      "inputs": [],
      "name": "totalSupply",
      "outputs": [
        {
          "internalType": "uint256",
          "name": "",
          "type": "uint256"
        }
      ],
      "stateMutability": "view",
      "type": "function"
    },
    {
      "inputs": [
        {
          "internalType": "address",
          "name": "from",
          "type": "address"
        },
        {
          "internalType": "address",
          "name": "to",
          "type": "address"
        },
        {
          "internalType": "uint256",
          "name": "tokenId",
          "type": "uint256"
        }
      ],
      "name": "transferFrom",
      "outputs": [],
      "stateMutability": "nonpayable",
      "type": "function"
    }
  ],
  "transactionHash": "0xc19382ce75959779b5f5186ea034829ced755e7c25a212ae00de6b776cdde916",
  "args": [
    false,
    1676475000,
    282,
    "28100",
    0,
    0,
    "0xBf175FCC7086b4f9bd59d5EAE8eA67b8f940DE0d",
    "0x60Ae865ee4C725cd04353b5AAb364553f56ceF82"
  ],
  "numDeployments": 1,
  "solcInputHash": "d0f4cddf49542acb3c447f5f85c5542a",
  "bytecode": "0x6101806040523480156200001257600080fd5b5060405162005b2438038062005b24833981810160405281019062000038919062000219565b8188868686858415156080811515815250508360a081815250508260c081815250508160e081815250508073ffffffffffffffffffffffffffffffffffffffff166101008173ffffffffffffffffffffffffffffffffffffffff168152505050505050508073ffffffffffffffffffffffffffffffffffffffff166101208173ffffffffffffffffffffffffffffffffffffffff1681525050508661016081815250508561014081815250505050505050505050620002e2565b600080fd5b60008115159050919050565b6200010e81620000f7565b81146200011a57600080fd5b50565b6000815190506200012e8162000103565b92915050565b6000819050919050565b620001498162000134565b81146200015557600080fd5b50565b60008151905062000169816200013e565b92915050565b600073ffffffffffffffffffffffffffffffffffffffff82169050919050565b60006200019c826200016f565b9050919050565b620001ae816200018f565b8114620001ba57600080fd5b50565b600081519050620001ce81620001a3565b92915050565b6000620001e1826200018f565b9050919050565b620001f381620001d4565b8114620001ff57600080fd5b50565b6000815190506200021381620001e8565b92915050565b600080600080600080600080610100898b0312156200023d576200023c620000f2565b5b60006200024d8b828c016200011d565b9850506020620002608b828c0162000158565b9750506040620002738b828c0162000158565b9650506060620002868b828c0162000158565b9550506080620002998b828c0162000158565b94505060a0620002ac8b828c0162000158565b93505060c0620002bf8b828c01620001bd565b92505060e0620002d28b828c0162000202565b9150509295985092959890939650565b60805160a05160c05160e051610100516101205161014051610160516157886200039c6000396000818161092101526117e2015260008181611cdb01528181611d0b01528181611d96015261218f015260008181610ff301526120d5015260008181610a7e015281816114110152611abf0152600061129c01526000611c36015260006117be0152600081816109d401528181610a5601528181611395015281816116e301528181611cb2015261216901526157886000f3fe608060405234801561001057600080fd5b50600436106101fb5760003560e01c8063661e3e361161011a578063a0bcfc7f116100ad578063c631029e1161007c578063c631029e146105a1578063c87b56dd146105bf578063d5abeb01146105ef578063e985e9c51461060d578063f5e2f8be1461063d576101fb565b8063a0bcfc7f1461052f578063a22cb4651461054b578063b02cfdc314610567578063b88d4fde14610585576101fb565b806384af9a92116100e957806384af9a92146104b757806386478122146104d557806395d89b41146104f35780639abc832014610511576101fb565b8063661e3e361461041c57806366e305fd146104385780637072c6b11461046957806370a0823114610487576101fb565b80632c375026116101925780634f6ccce7116101615780634f6ccce7146103805780635c975abb146103b05780636352211e146103ce57806363631410146103fe576101fb565b80632c375026146102fa5780632f745c59146103165780633552221a1461034657806342842e0e14610364576101fb565b80631249c58b116101ce5780631249c58b1461029a57806316c38b3c146102a457806318160ddd146102c057806323b872dd146102de576101fb565b806301ffc9a71461020057806306fdde0314610230578063081812fc1461024e578063095ea7b31461027e575b600080fd5b61021a60048036038101906102159190613b75565b61066d565b6040516102279190613bbd565b60405180910390f35b6102386106e7565b6040516102459190613c71565b60405180910390f35b61026860048036038101906102639190613cc9565b610779565b6040516102759190613d37565b60405180910390f35b61029860048036038101906102939190613d7e565b6107fe565b005b6102a2610908565b005b6102be60048036038101906102b99190613dea565b610bb4565b005b6102c8610c46565b6040516102d59190613e26565b60405180910390f35b6102f860048036038101906102f39190613e41565b610c53565b005b610314600480360381019061030f9190613ef9565b610da3565b005b610330600480360381019061032b9190613d7e565b610f4c565b60405161033d9190613e26565b60405180910390f35b61034e610ff1565b60405161035b9190613d37565b60405180910390f35b61037e60048036038101906103799190613e41565b611015565b005b61039a60048036038101906103959190613cc9565b611165565b6040516103a79190613e26565b60405180910390f35b6103b86111d6565b6040516103c59190613bbd565b60405180910390f35b6103e860048036038101906103e39190613cc9565b6111e9565b6040516103f59190613d37565b60405180910390f35b61040661129a565b6040516104139190613e26565b60405180910390f35b61043660048036038101906104319190614018565b6112be565b005b610452600480360381019061044d9190614065565b61138f565b604051610460929190614150565b60405180910390f35b6104716116e1565b60405161047e9190613bbd565b60405180910390f35b6104a1600480360381019061049c9190614065565b611705565b6040516104ae9190613e26565b60405180910390f35b6104bf6117bc565b6040516104cc9190613e26565b60405180910390f35b6104dd6117e0565b6040516104ea9190613e26565b60405180910390f35b6104fb611804565b6040516105089190613c71565b60405180910390f35b610519611896565b6040516105269190613c71565b60405180910390f35b610549600480360381019061054491906142b0565b611924565b005b610565600480360381019061056091906142f9565b6119b3565b005b61056f611abd565b60405161057c9190614398565b60405180910390f35b61059f600480360381019061059a9190614454565b611ae1565b005b6105a9611c34565b6040516105b69190613e26565b60405180910390f35b6105d960048036038101906105d49190613cc9565b611c58565b6040516105e69190613c71565b60405180910390f35b6105f7611d94565b6040516106049190613e26565b60405180910390f35b610627600480360381019061062291906144d7565b611db8565b6040516106349190613bbd565b60405180910390f35b61065760048036038101906106529190613cc9565b611e4c565b6040516106649190613bbd565b60405180910390f35b60007f780e9d63000000000000000000000000000000000000000000000000000000007bffffffffffffffffffffffffffffffffffffffffffffffffffffffff1916827bffffffffffffffffffffffffffffffffffffffffffffffffffffffff191614806106e057506106df82611e6c565b5b9050919050565b6060606580546106f690614546565b80601f016020809104026020016040519081016040528092919081815260200182805461072290614546565b801561076f5780601f106107445761010080835404028352916020019161076f565b820191906000526020600020905b81548152906001019060200180831161075257829003601f168201915b5050505050905090565b600061078482611f4e565b6107c3576040517f08c379a00000000000000000000000000000000000000000000000000000000081526004016107ba906145e9565b60405180910390fd5b6069600083815260200190815260200160002060009054906101000a900473ffffffffffffffffffffffffffffffffffffffff169050919050565b8160006daaeb6d7670e522a718067333cd4e73ffffffffffffffffffffffffffffffffffffffff163b11156108f9576daaeb6d7670e522a718067333cd4e73ffffffffffffffffffffffffffffffffffffffff1663c617113430836040518363ffffffff1660e01b8152600401610876929190614609565b602060405180830381865afa158015610893573d6000803e3d6000fd5b505050506040513d601f19601f820116820180604052508101906108b79190614647565b6108f857806040517fede71dcc0000000000000000000000000000000000000000000000000000000081526004016108ef9190613d37565b60405180910390fd5b5b6109038383611fba565b505050565b60ca60009054906101000a900460ff16158061094357507f000000000000000000000000000000000000000000000000000000000000000042115b610982576040517f08c379a0000000000000000000000000000000000000000000000000000000008152600401610979906146c0565b60405180910390fd5b61098b336120d1565b6109ca576040517f08c379a00000000000000000000000000000000000000000000000000000000081526004016109c19061472c565b60405180910390fd5b6109d2612129565b7f000000000000000000000000000000000000000000000000000000000000000015610a48576000610a038261138f565b50905080610a46576040517f08c379a0000000000000000000000000000000000000000000000000000000008152600401610a3d906147be565b60405180910390fd5b505b6000610a52612129565b90507f000000000000000000000000000000000000000000000000000000000000000015610ba75760007f000000000000000000000000000000000000000000000000000000000000000073ffffffffffffffffffffffffffffffffffffffff166392254a62836040518263ffffffff1660e01b8152600401610ad59190613d37565b602060405180830381865afa158015610af2573d6000803e3d6000fd5b505050506040513d601f19601f82011682018060405250810190610b1691906147f3565b905060cb600082815260200190815260200160002060009054906101000a900460ff1615610b79576040517f08c379a0000000000000000000000000000000000000000000000000000000008152600401610b7090614892565b60405180910390fd5b600160cb600083815260200190815260200160002060006101000a81548160ff021916908315150217905550505b610bb08161215b565b5050565b610bbc61220a565b73ffffffffffffffffffffffffffffffffffffffff163373ffffffffffffffffffffffffffffffffffffffff1614610c29576040517f08c379a0000000000000000000000000000000000000000000000000000000008152600401610c20906148fe565b60405180910390fd5b8060ca60006101000a81548160ff02191690831515021790555050565b6000609980549050905090565b8260006daaeb6d7670e522a718067333cd4e73ffffffffffffffffffffffffffffffffffffffff163b1115610d91573373ffffffffffffffffffffffffffffffffffffffff168173ffffffffffffffffffffffffffffffffffffffff1603610cc557610cc0848484612233565b610d9d565b6daaeb6d7670e522a718067333cd4e73ffffffffffffffffffffffffffffffffffffffff1663c617113430336040518363ffffffff1660e01b8152600401610d0e929190614609565b602060405180830381865afa158015610d2b573d6000803e3d6000fd5b505050506040513d601f19601f82011682018060405250810190610d4f9190614647565b610d9057336040517fede71dcc000000000000000000000000000000000000000000000000000000008152600401610d879190613d37565b60405180910390fd5b5b610d9c848484612233565b5b50505050565b600060019054906101000a900460ff16610dcb5760008054906101000a900460ff1615610dd4565b610dd3612293565b5b610e13576040517f08c379a0000000000000000000000000000000000000000000000000000000008152600401610e0a90614990565b60405180910390fd5b60008060019054906101000a900460ff161590508015610e63576001600060016101000a81548160ff02191690831515021790555060016000806101000a81548160ff0219169083151502179055505b610ef588888080601f016020809104026020016040519081016040528093929190818152602001838380828437600081840152601f19601f8201169050808301925050505050505087878080601f016020809104026020016040519081016040528093929190818152602001838380828437600081840152601f19601f820116905080830192505050505050506122a4565b838360c99190610f069291906139e0565b508160ca60006101000a81548160ff0219169083151502179055508015610f425760008060016101000a81548160ff0219169083151502179055505b5050505050505050565b6000610f5783611705565b8210610f98576040517f08c379a0000000000000000000000000000000000000000000000000000000008152600401610f8f90614a22565b60405180910390fd5b609760008473ffffffffffffffffffffffffffffffffffffffff1673ffffffffffffffffffffffffffffffffffffffff168152602001908152602001600020600083815260200190815260200160002054905092915050565b7f000000000000000000000000000000000000000000000000000000000000000081565b8260006daaeb6d7670e522a718067333cd4e73ffffffffffffffffffffffffffffffffffffffff163b1115611153573373ffffffffffffffffffffffffffffffffffffffff168173ffffffffffffffffffffffffffffffffffffffff160361108757611082848484612311565b61115f565b6daaeb6d7670e522a718067333cd4e73ffffffffffffffffffffffffffffffffffffffff1663c617113430336040518363ffffffff1660e01b81526004016110d0929190614609565b602060405180830381865afa1580156110ed573d6000803e3d6000fd5b505050506040513d601f19601f820116820180604052508101906111119190614647565b61115257336040517fede71dcc0000000000000000000000000000000000000000000000000000000081526004016111499190613d37565b60405180910390fd5b5b61115e848484612311565b5b50505050565b600061116f610c46565b82106111b0576040517f08c379a00000000000000000000000000000000000000000000000000000000081526004016111a790614ab4565b60405180910390fd5b609982815481106111c4576111c3614ad4565b5b90600052602060002001549050919050565b60ca60009054906101000a900460ff1681565b6000806067600084815260200190815260200160002060009054906101000a900473ffffffffffffffffffffffffffffffffffffffff169050600073ffffffffffffffffffffffffffffffffffffffff168173ffffffffffffffffffffffffffffffffffffffff1603611291576040517f08c379a000000000000000000000000000000000000000000000000000000000815260040161128890614b75565b60405180910390fd5b80915050919050565b7f000000000000000000000000000000000000000000000000000000000000000081565b6112c661220a565b73ffffffffffffffffffffffffffffffffffffffff163373ffffffffffffffffffffffffffffffffffffffff1614611333576040517f08c379a000000000000000000000000000000000000000000000000000000000815260040161132a906148fe565b60405180910390fd5b600082829050905060005b818110156113895761137684848381811061135c5761135b614ad4565b5b90506020020160208101906113719190614065565b61215b565b808061138190614bc4565b91505061133e565b50505050565b600060607f000000000000000000000000000000000000000000000000000000000000000061140d576001600467ffffffffffffffff8111156113d5576113d4614185565b5b6040519080825280602002602001820160405280156114035781602001602082028036833780820191505090505b50915091506116dc565b60007f000000000000000000000000000000000000000000000000000000000000000073ffffffffffffffffffffffffffffffffffffffff166392254a62856040518263ffffffff1660e01b81526004016114689190613d37565b602060405180830381865afa158015611485573d6000803e3d6000fd5b505050506040513d601f19601f820116820180604052508101906114a991906147f3565b9050600081036114ee576040517f08c379a00000000000000000000000000000000000000000000000000000000081526004016114e590614c7e565b60405180910390fd5b6000806040518060800160405280735a1cb941dc33db3da0627398ceb86a50e7cf47df73ffffffffffffffffffffffffffffffffffffffff1673ffffffffffffffffffffffffffffffffffffffff16815260200173ee87f4a569df482d884863d49a33f59f1fd4998373ffffffffffffffffffffffffffffffffffffffff1673ffffffffffffffffffffffffffffffffffffffff16815260200173d5aefe935dfc9360945115dde8da98b596dfbb9f73ffffffffffffffffffffffffffffffffffffffff1673ffffffffffffffffffffffffffffffffffffffff16815260200173baaea72417f4dc3e0f52a1783b0913d0f351663473ffffffffffffffffffffffffffffffffffffffff1673ffffffffffffffffffffffffffffffffffffffff16815250905060005b6004811015611682578673ffffffffffffffffffffffffffffffffffffffff1682826004811061164a57611649614ad4565b5b602002015173ffffffffffffffffffffffffffffffffffffffff160361166f57600192505b808061167a90614bc4565b915050611617565b506000600467ffffffffffffffff8111156116a05761169f614185565b5b6040519080825280602002602001820160405280156116ce5781602001602082028036833780820191505090505b509050828195509550505050505b915091565b7f000000000000000000000000000000000000000000000000000000000000000081565b60008073ffffffffffffffffffffffffffffffffffffffff168273ffffffffffffffffffffffffffffffffffffffff1603611775576040517f08c379a000000000000000000000000000000000000000000000000000000000815260040161176c90614d10565b60405180910390fd5b606860008373ffffffffffffffffffffffffffffffffffffffff1673ffffffffffffffffffffffffffffffffffffffff168152602001908152602001600020549050919050565b7f000000000000000000000000000000000000000000000000000000000000000081565b7f000000000000000000000000000000000000000000000000000000000000000081565b60606066805461181390614546565b80601f016020809104026020016040519081016040528092919081815260200182805461183f90614546565b801561188c5780601f106118615761010080835404028352916020019161188c565b820191906000526020600020905b81548152906001019060200180831161186f57829003601f168201915b5050505050905090565b60c980546118a390614546565b80601f01602080910402602001604051908101604052809291908181526020018280546118cf90614546565b801561191c5780601f106118f15761010080835404028352916020019161191c565b820191906000526020600020905b8154815290600101906020018083116118ff57829003601f168201915b505050505081565b61192c61220a565b73ffffffffffffffffffffffffffffffffffffffff163373ffffffffffffffffffffffffffffffffffffffff1614611999576040517f08c379a0000000000000000000000000000000000000000000000000000000008152600401611990906148fe565b60405180910390fd5b8060c990805190602001906119af929190613a66565b5050565b8160006daaeb6d7670e522a718067333cd4e73ffffffffffffffffffffffffffffffffffffffff163b1115611aae576daaeb6d7670e522a718067333cd4e73ffffffffffffffffffffffffffffffffffffffff1663c617113430836040518363ffffffff1660e01b8152600401611a2b929190614609565b602060405180830381865afa158015611a48573d6000803e3d6000fd5b505050506040513d601f19601f82011682018060405250810190611a6c9190614647565b611aad57806040517fede71dcc000000000000000000000000000000000000000000000000000000008152600401611aa49190613d37565b60405180910390fd5b5b611ab88383612331565b505050565b7f000000000000000000000000000000000000000000000000000000000000000081565b8360006daaeb6d7670e522a718067333cd4e73ffffffffffffffffffffffffffffffffffffffff163b1115611c20573373ffffffffffffffffffffffffffffffffffffffff168173ffffffffffffffffffffffffffffffffffffffff1603611b5457611b4f85858585612347565b611c2d565b6daaeb6d7670e522a718067333cd4e73ffffffffffffffffffffffffffffffffffffffff1663c617113430336040518363ffffffff1660e01b8152600401611b9d929190614609565b602060405180830381865afa158015611bba573d6000803e3d6000fd5b505050506040513d601f19601f82011682018060405250810190611bde9190614647565b611c1f57336040517fede71dcc000000000000000000000000000000000000000000000000000000008152600401611c169190613d37565b60405180910390fd5b5b611c2c85858585612347565b5b5050505050565b7f000000000000000000000000000000000000000000000000000000000000000081565b6060611c6382611f4e565b611ca2576040517f08c379a0000000000000000000000000000000000000000000000000000000008152600401611c9990614da2565b60405180910390fd5b6000611cac6123a9565b905060007f0000000000000000000000000000000000000000000000000000000000000000158015611cfd57507f000000000000000000000000000000000000000000000000000000000000000084115b611d075783611d40565b60017f000000000000000000000000000000000000000000000000000000000000000085611d359190614df1565b611d3f9190614e22565b5b90506000825111611d605760405180602001604052806000815250611d8b565b81611d6a8261243b565b604051602001611d7b929190614f00565b6040516020818303038152906040525b92505050919050565b7f000000000000000000000000000000000000000000000000000000000000000081565b6000606a60008473ffffffffffffffffffffffffffffffffffffffff1673ffffffffffffffffffffffffffffffffffffffff16815260200190815260200160002060008373ffffffffffffffffffffffffffffffffffffffff1673ffffffffffffffffffffffffffffffffffffffff16815260200190815260200160002060009054906101000a900460ff16905092915050565b60cb6020528060005260406000206000915054906101000a900460ff1681565b60007f80ac58cd000000000000000000000000000000000000000000000000000000007bffffffffffffffffffffffffffffffffffffffffffffffffffffffff1916827bffffffffffffffffffffffffffffffffffffffffffffffffffffffff19161480611f3757507f5b5e139f000000000000000000000000000000000000000000000000000000007bffffffffffffffffffffffffffffffffffffffffffffffffffffffff1916827bffffffffffffffffffffffffffffffffffffffffffffffffffffffff1916145b80611f475750611f468261259b565b5b9050919050565b60008073ffffffffffffffffffffffffffffffffffffffff166067600084815260200190815260200160002060009054906101000a900473ffffffffffffffffffffffffffffffffffffffff1673ffffffffffffffffffffffffffffffffffffffff1614159050919050565b6000611fc5826111e9565b90508073ffffffffffffffffffffffffffffffffffffffff168373ffffffffffffffffffffffffffffffffffffffff1603612035576040517f08c379a000000000000000000000000000000000000000000000000000000000815260040161202c90614fa1565b60405180910390fd5b8073ffffffffffffffffffffffffffffffffffffffff16612054612129565b73ffffffffffffffffffffffffffffffffffffffff16148061208357506120828161207d612129565b611db8565b5b6120c2576040517f08c379a00000000000000000000000000000000000000000000000000000000081526004016120b990615033565b60405180910390fd5b6120cc8383612605565b505050565b60007f000000000000000000000000000000000000000000000000000000000000000073ffffffffffffffffffffffffffffffffffffffff168273ffffffffffffffffffffffffffffffffffffffff16149050919050565b6000612134336120d1565b1561214857601436033560601c9050612157565b6121506126be565b9050612158565b5b90565b6000612165610c46565b90507f0000000000000000000000000000000000000000000000000000000000000000156121f0577f000000000000000000000000000000000000000000000000000000000000000081106121ef576040517f08c379a00000000000000000000000000000000000000000000000000000000081526004016121e69061509f565b60405180910390fd5b5b612206826001836122019190614e22565b6126c6565b5050565b60007fb53127684a568b3173ae13b9f8a6016e243e63b6e8ee1178d6a717850b5d610354905090565b61224461223e612129565b826126e4565b612283576040517f08c379a000000000000000000000000000000000000000000000000000000000815260040161227a90615131565b60405180910390fd5b61228e8383836127c2565b505050565b600061229e30612a1d565b15905090565b600060019054906101000a900460ff166122f3576040517f08c379a00000000000000000000000000000000000000000000000000000000081526004016122ea906151c3565b60405180910390fd5b6122fb612a30565b6123058282612a99565b61230d612b06565b5050565b61232c83838360405180602001604052806000815250611ae1565b505050565b61234361233c612129565b8383612b76565b5050565b612358612352612129565b836126e4565b612397576040517f08c379a000000000000000000000000000000000000000000000000000000000815260040161238e90615131565b60405180910390fd5b6123a384848484612ce2565b50505050565b606060c980546123b890614546565b80601f01602080910402602001604051908101604052809291908181526020018280546123e490614546565b80156124315780601f1061240657610100808354040283529160200191612431565b820191906000526020600020905b81548152906001019060200180831161241457829003601f168201915b5050505050905090565b606060008203612482576040518060400160405280600181526020017f30000000000000000000000000000000000000000000000000000000000000008152509050612596565b600082905060005b600082146124b457808061249d90614bc4565b915050600a826124ad91906151e3565b915061248a565b60008167ffffffffffffffff8111156124d0576124cf614185565b5b6040519080825280601f01601f1916602001820160405280156125025781602001600182028036833780820191505090505b5090505b6000851461258f5760018261251b9190615214565b9150600a8561252a9190614df1565b60306125369190614e22565b60f81b81838151811061254c5761254b614ad4565b5b60200101907effffffffffffffffffffffffffffffffffffffffffffffffffffffffffffff1916908160001a905350600a8561258891906151e3565b9450612506565b8093505050505b919050565b60007f01ffc9a7000000000000000000000000000000000000000000000000000000007bffffffffffffffffffffffffffffffffffffffffffffffffffffffff1916827bffffffffffffffffffffffffffffffffffffffffffffffffffffffff1916149050919050565b816069600083815260200190815260200160002060006101000a81548173ffffffffffffffffffffffffffffffffffffffff021916908373ffffffffffffffffffffffffffffffffffffffff160217905550808273ffffffffffffffffffffffffffffffffffffffff16612678836111e9565b73ffffffffffffffffffffffffffffffffffffffff167f8c5be1e5ebec7d5bd14f71427d1e84f3dd0314c0f7b2291e5b200ac8c7c3b92560405160405180910390a45050565b600033905090565b6126e0828260405180602001604052806000815250612d3e565b5050565b60006126ef82611f4e565b61272e576040517f08c379a0000000000000000000000000000000000000000000000000000000008152600401612725906152ba565b60405180910390fd5b6000612739836111e9565b90508073ffffffffffffffffffffffffffffffffffffffff168473ffffffffffffffffffffffffffffffffffffffff1614806127a857508373ffffffffffffffffffffffffffffffffffffffff1661279084610779565b73ffffffffffffffffffffffffffffffffffffffff16145b806127b957506127b88185611db8565b5b91505092915050565b8273ffffffffffffffffffffffffffffffffffffffff166127e2826111e9565b73ffffffffffffffffffffffffffffffffffffffff1614612838576040517f08c379a000000000000000000000000000000000000000000000000000000000815260040161282f9061534c565b60405180910390fd5b600073ffffffffffffffffffffffffffffffffffffffff168273ffffffffffffffffffffffffffffffffffffffff16036128a7576040517f08c379a000000000000000000000000000000000000000000000000000000000815260040161289e906153de565b60405180910390fd5b6128b2838383612d99565b6128bd600082612605565b6001606860008573ffffffffffffffffffffffffffffffffffffffff1673ffffffffffffffffffffffffffffffffffffffff168152602001908152602001600020600082825461290d9190615214565b925050819055506001606860008473ffffffffffffffffffffffffffffffffffffffff1673ffffffffffffffffffffffffffffffffffffffff16815260200190815260200160002060008282546129649190614e22565b92505081905550816067600083815260200190815260200160002060006101000a81548173ffffffffffffffffffffffffffffffffffffffff021916908373ffffffffffffffffffffffffffffffffffffffff160217905550808273ffffffffffffffffffffffffffffffffffffffff168473ffffffffffffffffffffffffffffffffffffffff167fddf252ad1be2c89b69c2b068fc378daa952ba7f163c4a11628f55a4df523b3ef60405160405180910390a4505050565b600080823b905060008111915050919050565b600060019054906101000a900460ff16612a7f576040517f08c379a0000000000000000000000000000000000000000000000000000000008152600401612a76906151c3565b60405180910390fd5b612a87612de7565b612a8f612e38565b612a97612e89565b565b600060019054906101000a900460ff16612ae8576040517f08c379a0000000000000000000000000000000000000000000000000000000008152600401612adf906151c3565b60405180910390fd5b612af0612de7565b612af8612e38565b612b028282612eda565b5050565b600060019054906101000a900460ff16612b55576040517f08c379a0000000000000000000000000000000000000000000000000000000008152600401612b4c906151c3565b60405180910390fd5b612b74733cc6cdda760b79bafa08df41ecfa224f810dceb66001612f5b565b565b8173ffffffffffffffffffffffffffffffffffffffff168373ffffffffffffffffffffffffffffffffffffffff1603612be4576040517f08c379a0000000000000000000000000000000000000000000000000000000008152600401612bdb9061544a565b60405180910390fd5b80606a60008573ffffffffffffffffffffffffffffffffffffffff1673ffffffffffffffffffffffffffffffffffffffff16815260200190815260200160002060008473ffffffffffffffffffffffffffffffffffffffff1673ffffffffffffffffffffffffffffffffffffffff16815260200190815260200160002060006101000a81548160ff0219169083151502179055508173ffffffffffffffffffffffffffffffffffffffff168373ffffffffffffffffffffffffffffffffffffffff167f17307eab39ab6107e8899845ad3d59bd9653f200f220920489ca2b5937696c3183604051612cd59190613bbd565b60405180910390a3505050565b612ced8484846127c2565b612cf984848484613221565b612d38576040517f08c379a0000000000000000000000000000000000000000000000000000000008152600401612d2f906154dc565b60405180910390fd5b50505050565b612d4883836133a8565b612d556000848484613221565b612d94576040517f08c379a0000000000000000000000000000000000000000000000000000000008152600401612d8b906154dc565b60405180910390fd5b505050565b600073ffffffffffffffffffffffffffffffffffffffff168273ffffffffffffffffffffffffffffffffffffffff1614612dd757612dd682613575565b5b612de28383836135c3565b505050565b600060019054906101000a900460ff16612e36576040517f08c379a0000000000000000000000000000000000000000000000000000000008152600401612e2d906151c3565b60405180910390fd5b565b600060019054906101000a900460ff16612e87576040517f08c379a0000000000000000000000000000000000000000000000000000000008152600401612e7e906151c3565b60405180910390fd5b565b600060019054906101000a900460ff16612ed8576040517f08c379a0000000000000000000000000000000000000000000000000000000008152600401612ecf906151c3565b60405180910390fd5b565b600060019054906101000a900460ff16612f29576040517f08c379a0000000000000000000000000000000000000000000000000000000008152600401612f20906151c3565b60405180910390fd5b8160659080519060200190612f3f929190613a66565b508060669080519060200190612f56929190613a66565b505050565b600060019054906101000a900460ff16612faa576040517f08c379a0000000000000000000000000000000000000000000000000000000008152600401612fa1906151c3565b60405180910390fd5b60006daaeb6d7670e522a718067333cd4e73ffffffffffffffffffffffffffffffffffffffff163b111561321d576daaeb6d7670e522a718067333cd4e73ffffffffffffffffffffffffffffffffffffffff1663c3c5a547306040518263ffffffff1660e01b815260040161301f9190613d37565b6020604051808303816000875af115801561303e573d6000803e3d6000fd5b505050506040513d601f19601f820116820180604052508101906130629190614647565b61321c5780156130ec576daaeb6d7670e522a718067333cd4e73ffffffffffffffffffffffffffffffffffffffff16637d3e3dbe30846040518363ffffffff1660e01b81526004016130b5929190614609565b600060405180830381600087803b1580156130cf57600080fd5b505af11580156130e3573d6000803e3d6000fd5b5050505061321b565b600073ffffffffffffffffffffffffffffffffffffffff168273ffffffffffffffffffffffffffffffffffffffff16146131a0576daaeb6d7670e522a718067333cd4e73ffffffffffffffffffffffffffffffffffffffff1663a0af290330846040518363ffffffff1660e01b8152600401613169929190614609565b600060405180830381600087803b15801561318357600080fd5b505af1158015613197573d6000803e3d6000fd5b5050505061321a565b6daaeb6d7670e522a718067333cd4e73ffffffffffffffffffffffffffffffffffffffff16634420e486306040518263ffffffff1660e01b81526004016131e79190613d37565b600060405180830381600087803b15801561320157600080fd5b505af1158015613215573d6000803e3d6000fd5b505050505b5b5b5b5050565b60006132428473ffffffffffffffffffffffffffffffffffffffff16612a1d565b1561339b578373ffffffffffffffffffffffffffffffffffffffff1663150b7a0261326b612129565b8786866040518563ffffffff1660e01b815260040161328d9493929190615551565b6020604051808303816000875af19250505080156132c957506040513d601f19601f820116820180604052508101906132c691906155b2565b60015b61334b573d80600081146132f9576040519150601f19603f3d011682016040523d82523d6000602084013e6132fe565b606091505b506000815103613343576040517f08c379a000000000000000000000000000000000000000000000000000000000815260040161333a906154dc565b60405180910390fd5b805181602001fd5b63150b7a0260e01b7bffffffffffffffffffffffffffffffffffffffffffffffffffffffff1916817bffffffffffffffffffffffffffffffffffffffffffffffffffffffff1916149150506133a0565b600190505b949350505050565b600073ffffffffffffffffffffffffffffffffffffffff168273ffffffffffffffffffffffffffffffffffffffff1603613417576040517f08c379a000000000000000000000000000000000000000000000000000000000815260040161340e9061562b565b60405180910390fd5b61342081611f4e565b15613460576040517f08c379a000000000000000000000000000000000000000000000000000000000815260040161345790615697565b60405180910390fd5b61346c60008383612d99565b6001606860008473ffffffffffffffffffffffffffffffffffffffff1673ffffffffffffffffffffffffffffffffffffffff16815260200190815260200160002060008282546134bc9190614e22565b92505081905550816067600083815260200190815260200160002060006101000a81548173ffffffffffffffffffffffffffffffffffffffff021916908373ffffffffffffffffffffffffffffffffffffffff160217905550808273ffffffffffffffffffffffffffffffffffffffff16600073ffffffffffffffffffffffffffffffffffffffff167fddf252ad1be2c89b69c2b068fc378daa952ba7f163c4a11628f55a4df523b3ef60405160405180910390a45050565b600061358082611705565b146135c0576040517f08c379a00000000000000000000000000000000000000000000000000000000081526004016135b790615703565b60405180910390fd5b50565b6135ce8383836136d5565b600073ffffffffffffffffffffffffffffffffffffffff168373ffffffffffffffffffffffffffffffffffffffff16036136105761360b816136da565b61364f565b8173ffffffffffffffffffffffffffffffffffffffff168373ffffffffffffffffffffffffffffffffffffffff161461364e5761364d8382613723565b5b5b600073ffffffffffffffffffffffffffffffffffffffff168273ffffffffffffffffffffffffffffffffffffffff16036136915761368c81613890565b6136d0565b8273ffffffffffffffffffffffffffffffffffffffff168273ffffffffffffffffffffffffffffffffffffffff16146136cf576136ce8282613961565b5b5b505050565b505050565b609980549050609a600083815260200190815260200160002081905550609981908060018154018082558091505060019003906000526020600020016000909190919091505550565b6000600161373084611705565b61373a9190615214565b905060006098600084815260200190815260200160002054905081811461381f576000609760008673ffffffffffffffffffffffffffffffffffffffff1673ffffffffffffffffffffffffffffffffffffffff168152602001908152602001600020600084815260200190815260200160002054905080609760008773ffffffffffffffffffffffffffffffffffffffff1673ffffffffffffffffffffffffffffffffffffffff168152602001908152602001600020600084815260200190815260200160002081905550816098600083815260200190815260200160002081905550505b6098600084815260200190815260200160002060009055609760008573ffffffffffffffffffffffffffffffffffffffff1673ffffffffffffffffffffffffffffffffffffffff16815260200190815260200160002060008381526020019081526020016000206000905550505050565b600060016099805490506138a49190615214565b90506000609a60008481526020019081526020016000205490506000609983815481106138d4576138d3614ad4565b5b9060005260206000200154905080609983815481106138f6576138f5614ad4565b5b906000526020600020018190555081609a600083815260200190815260200160002081905550609a600085815260200190815260200160002060009055609980548061394557613944615723565b5b6001900381819060005260206000200160009055905550505050565b600061396c83611705565b905081609760008573ffffffffffffffffffffffffffffffffffffffff1673ffffffffffffffffffffffffffffffffffffffff168152602001908152602001600020600083815260200190815260200160002081905550806098600084815260200190815260200160002081905550505050565b8280546139ec90614546565b90600052602060002090601f016020900481019282613a0e5760008555613a55565b82601f10613a2757803560ff1916838001178555613a55565b82800160010185558215613a55579182015b82811115613a54578235825591602001919060010190613a39565b5b509050613a629190613aec565b5090565b828054613a7290614546565b90600052602060002090601f016020900481019282613a945760008555613adb565b82601f10613aad57805160ff1916838001178555613adb565b82800160010185558215613adb579182015b82811115613ada578251825591602001919060010190613abf565b5b509050613ae89190613aec565b5090565b5b80821115613b05576000816000905550600101613aed565b5090565b6000604051905090565b600080fd5b600080fd5b60007fffffffff0000000000000000000000000000000000000000000000000000000082169050919050565b613b5281613b1d565b8114613b5d57600080fd5b50565b600081359050613b6f81613b49565b92915050565b600060208284031215613b8b57613b8a613b13565b5b6000613b9984828501613b60565b91505092915050565b60008115159050919050565b613bb781613ba2565b82525050565b6000602082019050613bd26000830184613bae565b92915050565b600081519050919050565b600082825260208201905092915050565b60005b83811015613c12578082015181840152602081019050613bf7565b83811115613c21576000848401525b50505050565b6000601f19601f8301169050919050565b6000613c4382613bd8565b613c4d8185613be3565b9350613c5d818560208601613bf4565b613c6681613c27565b840191505092915050565b60006020820190508181036000830152613c8b8184613c38565b905092915050565b6000819050919050565b613ca681613c93565b8114613cb157600080fd5b50565b600081359050613cc381613c9d565b92915050565b600060208284031215613cdf57613cde613b13565b5b6000613ced84828501613cb4565b91505092915050565b600073ffffffffffffffffffffffffffffffffffffffff82169050919050565b6000613d2182613cf6565b9050919050565b613d3181613d16565b82525050565b6000602082019050613d4c6000830184613d28565b92915050565b613d5b81613d16565b8114613d6657600080fd5b50565b600081359050613d7881613d52565b92915050565b60008060408385031215613d9557613d94613b13565b5b6000613da385828601613d69565b9250506020613db485828601613cb4565b9150509250929050565b613dc781613ba2565b8114613dd257600080fd5b50565b600081359050613de481613dbe565b92915050565b600060208284031215613e0057613dff613b13565b5b6000613e0e84828501613dd5565b91505092915050565b613e2081613c93565b82525050565b6000602082019050613e3b6000830184613e17565b92915050565b600080600060608486031215613e5a57613e59613b13565b5b6000613e6886828701613d69565b9350506020613e7986828701613d69565b9250506040613e8a86828701613cb4565b9150509250925092565b600080fd5b600080fd5b600080fd5b60008083601f840112613eb957613eb8613e94565b5b8235905067ffffffffffffffff811115613ed657613ed5613e99565b5b602083019150836001820283011115613ef257613ef1613e9e565b5b9250929050565b60008060008060008060006080888a031215613f1857613f17613b13565b5b600088013567ffffffffffffffff811115613f3657613f35613b18565b5b613f428a828b01613ea3565b9750975050602088013567ffffffffffffffff811115613f6557613f64613b18565b5b613f718a828b01613ea3565b9550955050604088013567ffffffffffffffff811115613f9457613f93613b18565b5b613fa08a828b01613ea3565b93509350506060613fb38a828b01613dd5565b91505092959891949750929550565b60008083601f840112613fd857613fd7613e94565b5b8235905067ffffffffffffffff811115613ff557613ff4613e99565b5b60208301915083602082028301111561401157614010613e9e565b5b9250929050565b6000806020838503121561402f5761402e613b13565b5b600083013567ffffffffffffffff81111561404d5761404c613b18565b5b61405985828601613fc2565b92509250509250929050565b60006020828403121561407b5761407a613b13565b5b600061408984828501613d69565b91505092915050565b600081519050919050565b600082825260208201905092915050565b6000819050602082019050919050565b6140c781613ba2565b82525050565b60006140d983836140be565b60208301905092915050565b6000602082019050919050565b60006140fd82614092565b614107818561409d565b9350614112836140ae565b8060005b8381101561414357815161412a88826140cd565b9750614135836140e5565b925050600181019050614116565b5085935050505092915050565b60006040820190506141656000830185613bae565b818103602083015261417781846140f2565b90509392505050565b600080fd5b7f4e487b7100000000000000000000000000000000000000000000000000000000600052604160045260246000fd5b6141bd82613c27565b810181811067ffffffffffffffff821117156141dc576141db614185565b5b80604052505050565b60006141ef613b09565b90506141fb82826141b4565b919050565b600067ffffffffffffffff82111561421b5761421a614185565b5b61422482613c27565b9050602081019050919050565b82818337600083830152505050565b600061425361424e84614200565b6141e5565b90508281526020810184848401111561426f5761426e614180565b5b61427a848285614231565b509392505050565b600082601f83011261429757614296613e94565b5b81356142a7848260208601614240565b91505092915050565b6000602082840312156142c6576142c5613b13565b5b600082013567ffffffffffffffff8111156142e4576142e3613b18565b5b6142f084828501614282565b91505092915050565b600080604083850312156143105761430f613b13565b5b600061431e85828601613d69565b925050602061432f85828601613dd5565b9150509250929050565b6000819050919050565b600061435e61435961435484613cf6565b614339565b613cf6565b9050919050565b600061437082614343565b9050919050565b600061438282614365565b9050919050565b61439281614377565b82525050565b60006020820190506143ad6000830184614389565b92915050565b600067ffffffffffffffff8211156143ce576143cd614185565b5b6143d782613c27565b9050602081019050919050565b60006143f76143f2846143b3565b6141e5565b90508281526020810184848401111561441357614412614180565b5b61441e848285614231565b509392505050565b600082601f83011261443b5761443a613e94565b5b813561444b8482602086016143e4565b91505092915050565b6000806000806080858703121561446e5761446d613b13565b5b600061447c87828801613d69565b945050602061448d87828801613d69565b935050604061449e87828801613cb4565b925050606085013567ffffffffffffffff8111156144bf576144be613b18565b5b6144cb87828801614426565b91505092959194509250565b600080604083850312156144ee576144ed613b13565b5b60006144fc85828601613d69565b925050602061450d85828601613d69565b9150509250929050565b7f4e487b7100000000000000000000000000000000000000000000000000000000600052602260045260246000fd5b6000600282049050600182168061455e57607f821691505b60208210810361457157614570614517565b5b50919050565b7f4552433732313a20617070726f76656420717565727920666f72206e6f6e657860008201527f697374656e7420746f6b656e0000000000000000000000000000000000000000602082015250565b60006145d3602c83613be3565b91506145de82614577565b604082019050919050565b60006020820190508181036000830152614602816145c6565b9050919050565b600060408201905061461e6000830185613d28565b61462b6020830184613d28565b9392505050565b60008151905061464181613dbe565b92915050565b60006020828403121561465d5761465c613b13565b5b600061466b84828501614632565b91505092915050565b7f4b6f727544616f4e46543a205061757365640000000000000000000000000000600082015250565b60006146aa601283613be3565b91506146b582614674565b602082019050919050565b600060208201905081810360008301526146d98161469d565b9050919050565b7f4f6e6c792047656c61746f52656c617900000000000000000000000000000000600082015250565b6000614716601083613be3565b9150614721826146e0565b602082019050919050565b6000602082019050818103600083015261474581614709565b9050919050565b7f4d696e745265737472696374696f6e733a2057616c6c657420646f6573206e6f60008201527f74206d6565742063726974657269610000000000000000000000000000000000602082015250565b60006147a8602f83613be3565b91506147b38261474c565b604082019050919050565b600060208201905081810360008301526147d78161479b565b9050919050565b6000815190506147ed81613c9d565b92915050565b60006020828403121561480957614808613b13565b5b6000614817848285016147de565b91505092915050565b7f4d696e745265737472696374696f6e733a20416c7265616479206d696e74656460008201527f2077697468206c656e732070726f66696c650000000000000000000000000000602082015250565b600061487c603283613be3565b915061488782614820565b604082019050919050565b600060208201905081810360008301526148ab8161486f565b9050919050565b7f4e4f545f415554484f52495a4544000000000000000000000000000000000000600082015250565b60006148e8600e83613be3565b91506148f3826148b2565b602082019050919050565b60006020820190508181036000830152614917816148db565b9050919050565b7f496e697469616c697a61626c653a20636f6e747261637420697320616c72656160008201527f647920696e697469616c697a6564000000000000000000000000000000000000602082015250565b600061497a602e83613be3565b91506149858261491e565b604082019050919050565b600060208201905081810360008301526149a98161496d565b9050919050565b7f455243373231456e756d657261626c653a206f776e657220696e646578206f7560008201527f74206f6620626f756e6473000000000000000000000000000000000000000000602082015250565b6000614a0c602b83613be3565b9150614a17826149b0565b604082019050919050565b60006020820190508181036000830152614a3b816149ff565b9050919050565b7f455243373231456e756d657261626c653a20676c6f62616c20696e646578206f60008201527f7574206f6620626f756e64730000000000000000000000000000000000000000602082015250565b6000614a9e602c83613be3565b9150614aa982614a42565b604082019050919050565b60006020820190508181036000830152614acd81614a91565b9050919050565b7f4e487b7100000000000000000000000000000000000000000000000000000000600052603260045260246000fd5b7f4552433732313a206f776e657220717565727920666f72206e6f6e657869737460008201527f656e7420746f6b656e0000000000000000000000000000000000000000000000602082015250565b6000614b5f602983613be3565b9150614b6a82614b03565b604082019050919050565b60006020820190508181036000830152614b8e81614b52565b9050919050565b7f4e487b7100000000000000000000000000000000000000000000000000000000600052601160045260246000fd5b6000614bcf82613c93565b91507fffffffffffffffffffffffffffffffffffffffffffffffffffffffffffffffff8203614c0157614c00614b95565b5b600182019050919050565b7f4d696e745265737472696374696f6e733a2057616c6c657420646f6573206e6f60008201527f7420686176652064656661756c742070726f66696c6500000000000000000000602082015250565b6000614c68603683613be3565b9150614c7382614c0c565b604082019050919050565b60006020820190508181036000830152614c9781614c5b565b9050919050565b7f4552433732313a2062616c616e636520717565727920666f7220746865207a6560008201527f726f206164647265737300000000000000000000000000000000000000000000602082015250565b6000614cfa602a83613be3565b9150614d0582614c9e565b604082019050919050565b60006020820190508181036000830152614d2981614ced565b9050919050565b7f4552433732314d657461646174613a2055524920717565727920666f72206e6f60008201527f6e6578697374656e7420746f6b656e0000000000000000000000000000000000602082015250565b6000614d8c602f83613be3565b9150614d9782614d30565b604082019050919050565b60006020820190508181036000830152614dbb81614d7f565b9050919050565b7f4e487b7100000000000000000000000000000000000000000000000000000000600052601260045260246000fd5b6000614dfc82613c93565b9150614e0783613c93565b925082614e1757614e16614dc2565b5b828206905092915050565b6000614e2d82613c93565b9150614e3883613c93565b9250827fffffffffffffffffffffffffffffffffffffffffffffffffffffffffffffffff03821115614e6d57614e6c614b95565b5b828201905092915050565b600081905092915050565b6000614e8e82613bd8565b614e988185614e78565b9350614ea8818560208601613bf4565b80840191505092915050565b7f2e6a736f6e000000000000000000000000000000000000000000000000000000600082015250565b6000614eea600583614e78565b9150614ef582614eb4565b600582019050919050565b6000614f0c8285614e83565b9150614f188284614e83565b9150614f2382614edd565b91508190509392505050565b7f4552433732313a20617070726f76616c20746f2063757272656e74206f776e6560008201527f7200000000000000000000000000000000000000000000000000000000000000602082015250565b6000614f8b602183613be3565b9150614f9682614f2f565b604082019050919050565b60006020820190508181036000830152614fba81614f7e565b9050919050565b7f4552433732313a20617070726f76652063616c6c6572206973206e6f74206f7760008201527f6e6572206e6f7220617070726f76656420666f7220616c6c0000000000000000602082015250565b600061501d603883613be3565b915061502882614fc1565b604082019050919050565b6000602082019050818103600083015261504c81615010565b9050919050565b7f4b6f727544616f4e46543a204d617820537570706c7900000000000000000000600082015250565b6000615089601683613be3565b915061509482615053565b602082019050919050565b600060208201905081810360008301526150b88161507c565b9050919050565b7f4552433732313a207472616e736665722063616c6c6572206973206e6f74206f60008201527f776e6572206e6f7220617070726f766564000000000000000000000000000000602082015250565b600061511b603183613be3565b9150615126826150bf565b604082019050919050565b6000602082019050818103600083015261514a8161510e565b9050919050565b7f496e697469616c697a61626c653a20636f6e7472616374206973206e6f74206960008201527f6e697469616c697a696e67000000000000000000000000000000000000000000602082015250565b60006151ad602b83613be3565b91506151b882615151565b604082019050919050565b600060208201905081810360008301526151dc816151a0565b9050919050565b60006151ee82613c93565b91506151f983613c93565b92508261520957615208614dc2565b5b828204905092915050565b600061521f82613c93565b915061522a83613c93565b92508282101561523d5761523c614b95565b5b828203905092915050565b7f4552433732313a206f70657261746f7220717565727920666f72206e6f6e657860008201527f697374656e7420746f6b656e0000000000000000000000000000000000000000602082015250565b60006152a4602c83613be3565b91506152af82615248565b604082019050919050565b600060208201905081810360008301526152d381615297565b9050919050565b7f4552433732313a207472616e73666572206f6620746f6b656e2074686174206960008201527f73206e6f74206f776e0000000000000000000000000000000000000000000000602082015250565b6000615336602983613be3565b9150615341826152da565b604082019050919050565b6000602082019050818103600083015261536581615329565b9050919050565b7f4552433732313a207472616e7366657220746f20746865207a65726f2061646460008201527f7265737300000000000000000000000000000000000000000000000000000000602082015250565b60006153c8602483613be3565b91506153d38261536c565b604082019050919050565b600060208201905081810360008301526153f7816153bb565b9050919050565b7f4552433732313a20617070726f766520746f2063616c6c657200000000000000600082015250565b6000615434601983613be3565b915061543f826153fe565b602082019050919050565b6000602082019050818103600083015261546381615427565b9050919050565b7f4552433732313a207472616e7366657220746f206e6f6e20455243373231526560008201527f63656976657220696d706c656d656e7465720000000000000000000000000000602082015250565b60006154c6603283613be3565b91506154d18261546a565b604082019050919050565b600060208201905081810360008301526154f5816154b9565b9050919050565b600081519050919050565b600082825260208201905092915050565b6000615523826154fc565b61552d8185615507565b935061553d818560208601613bf4565b61554681613c27565b840191505092915050565b60006080820190506155666000830187613d28565b6155736020830186613d28565b6155806040830185613e17565b81810360608301526155928184615518565b905095945050505050565b6000815190506155ac81613b49565b92915050565b6000602082840312156155c8576155c7613b13565b5b60006155d68482850161559d565b91505092915050565b7f4552433732313a206d696e7420746f20746865207a65726f2061646472657373600082015250565b6000615615602083613be3565b9150615620826155df565b602082019050919050565b6000602082019050818103600083015261564481615608565b9050919050565b7f4552433732313a20746f6b656e20616c7265616479206d696e74656400000000600082015250565b6000615681601c83613be3565b915061568c8261564b565b602082019050919050565b600060208201905081810360008301526156b081615674565b9050919050565b7f4b6f727544616f4e46543a204f6e6520706572206163636f756e740000000000600082015250565b60006156ed601b83613be3565b91506156f8826156b7565b602082019050919050565b6000602082019050818103600083015261571c816156e0565b9050919050565b7f4e487b7100000000000000000000000000000000000000000000000000000000600052603160045260246000fdfea26469706673582212200d321a6561703f628c7ea8fbdd9bcb395cdd19363507ff3f66c28a9292a96d5a64736f6c634300080e0033",
  "devdoc": {
    "kind": "dev",
    "methods": {
      "balanceOf(address)": {
        "details": "See {IERC721-balanceOf}."
      },
      "getApproved(uint256)": {
        "details": "See {IERC721-getApproved}."
      },
      "isApprovedForAll(address,address)": {
        "details": "See {IERC721-isApprovedForAll}."
      },
      "name()": {
        "details": "See {IERC721Metadata-name}."
      },
      "ownerOf(uint256)": {
        "details": "See {IERC721-ownerOf}."
      },
      "supportsInterface(bytes4)": {
        "details": "See {IERC165-supportsInterface}."
      },
      "symbol()": {
        "details": "See {IERC721Metadata-symbol}."
      },
      "tokenByIndex(uint256)": {
        "details": "See {IERC721Enumerable-tokenByIndex}."
      },
      "tokenOfOwnerByIndex(address,uint256)": {
        "details": "See {IERC721Enumerable-tokenOfOwnerByIndex}."
      },
      "tokenURI(uint256)": {
        "details": "See {IERC721Metadata-tokenURI}."
      },
      "totalSupply()": {
        "details": "See {IERC721Enumerable-totalSupply}."
      }
    },
    "version": 1
  },
  "userdoc": {
    "kind": "user",
    "methods": {},
    "version": 1
  },
  "storageLayout": {
    "storage": [
      {
        "astId": 6,
        "contract": "contracts/KoruDaoNFT.sol:KoruDaoNFT",
        "label": "_initialized",
        "offset": 0,
        "slot": "0",
        "type": "t_bool"
      },
      {
        "astId": 9,
        "contract": "contracts/KoruDaoNFT.sol:KoruDaoNFT",
        "label": "_initializing",
        "offset": 1,
        "slot": "0",
        "type": "t_bool"
      },
      {
        "astId": 1780,
        "contract": "contracts/KoruDaoNFT.sol:KoruDaoNFT",
        "label": "__gap",
        "offset": 0,
        "slot": "1",
        "type": "t_array(t_uint256)50_storage"
      },
      {
        "astId": 2029,
        "contract": "contracts/KoruDaoNFT.sol:KoruDaoNFT",
        "label": "__gap",
        "offset": 0,
        "slot": "51",
        "type": "t_array(t_uint256)50_storage"
      },
      {
        "astId": 102,
        "contract": "contracts/KoruDaoNFT.sol:KoruDaoNFT",
        "label": "_name",
        "offset": 0,
        "slot": "101",
        "type": "t_string_storage"
      },
      {
        "astId": 104,
        "contract": "contracts/KoruDaoNFT.sol:KoruDaoNFT",
        "label": "_symbol",
        "offset": 0,
        "slot": "102",
        "type": "t_string_storage"
      },
      {
        "astId": 108,
        "contract": "contracts/KoruDaoNFT.sol:KoruDaoNFT",
        "label": "_owners",
        "offset": 0,
        "slot": "103",
        "type": "t_mapping(t_uint256,t_address)"
      },
      {
        "astId": 112,
        "contract": "contracts/KoruDaoNFT.sol:KoruDaoNFT",
        "label": "_balances",
        "offset": 0,
        "slot": "104",
        "type": "t_mapping(t_address,t_uint256)"
      },
      {
        "astId": 116,
        "contract": "contracts/KoruDaoNFT.sol:KoruDaoNFT",
        "label": "_tokenApprovals",
        "offset": 0,
        "slot": "105",
        "type": "t_mapping(t_uint256,t_address)"
      },
      {
        "astId": 122,
        "contract": "contracts/KoruDaoNFT.sol:KoruDaoNFT",
        "label": "_operatorApprovals",
        "offset": 0,
        "slot": "106",
        "type": "t_mapping(t_address,t_mapping(t_address,t_bool))"
      },
      {
        "astId": 933,
        "contract": "contracts/KoruDaoNFT.sol:KoruDaoNFT",
        "label": "__gap",
        "offset": 0,
        "slot": "107",
        "type": "t_array(t_uint256)44_storage"
      },
      {
        "astId": 1107,
        "contract": "contracts/KoruDaoNFT.sol:KoruDaoNFT",
        "label": "_ownedTokens",
        "offset": 0,
        "slot": "151",
        "type": "t_mapping(t_address,t_mapping(t_uint256,t_uint256))"
      },
      {
        "astId": 1111,
        "contract": "contracts/KoruDaoNFT.sol:KoruDaoNFT",
        "label": "_ownedTokensIndex",
        "offset": 0,
        "slot": "152",
        "type": "t_mapping(t_uint256,t_uint256)"
      },
      {
        "astId": 1114,
        "contract": "contracts/KoruDaoNFT.sol:KoruDaoNFT",
        "label": "_allTokens",
        "offset": 0,
        "slot": "153",
        "type": "t_array(t_uint256)dyn_storage"
      },
      {
        "astId": 1118,
        "contract": "contracts/KoruDaoNFT.sol:KoruDaoNFT",
        "label": "_allTokensIndex",
        "offset": 0,
        "slot": "154",
        "type": "t_mapping(t_uint256,t_uint256)"
      },
      {
        "astId": 1433,
        "contract": "contracts/KoruDaoNFT.sol:KoruDaoNFT",
        "label": "__gap",
        "offset": 0,
        "slot": "155",
        "type": "t_array(t_uint256)46_storage"
      },
      {
        "astId": 2661,
        "contract": "contracts/KoruDaoNFT.sol:KoruDaoNFT",
        "label": "baseUri",
        "offset": 0,
        "slot": "201",
        "type": "t_string_storage"
      },
      {
        "astId": 2663,
        "contract": "contracts/KoruDaoNFT.sol:KoruDaoNFT",
        "label": "paused",
        "offset": 0,
        "slot": "202",
        "type": "t_bool"
      },
      {
        "astId": 2667,
        "contract": "contracts/KoruDaoNFT.sol:KoruDaoNFT",
        "label": "lensProfileMinted",
        "offset": 0,
        "slot": "203",
        "type": "t_mapping(t_uint256,t_bool)"
      }
    ],
    "types": {
      "t_address": {
        "encoding": "inplace",
        "label": "address",
        "numberOfBytes": "20"
      },
      "t_array(t_uint256)44_storage": {
        "base": "t_uint256",
        "encoding": "inplace",
        "label": "uint256[44]",
        "numberOfBytes": "1408"
      },
      "t_array(t_uint256)46_storage": {
        "base": "t_uint256",
        "encoding": "inplace",
        "label": "uint256[46]",
        "numberOfBytes": "1472"
      },
      "t_array(t_uint256)50_storage": {
        "base": "t_uint256",
        "encoding": "inplace",
        "label": "uint256[50]",
        "numberOfBytes": "1600"
      },
      "t_array(t_uint256)dyn_storage": {
        "base": "t_uint256",
        "encoding": "dynamic_array",
        "label": "uint256[]",
        "numberOfBytes": "32"
      },
      "t_bool": {
        "encoding": "inplace",
        "label": "bool",
        "numberOfBytes": "1"
      },
      "t_mapping(t_address,t_bool)": {
        "encoding": "mapping",
        "key": "t_address",
        "label": "mapping(address => bool)",
        "numberOfBytes": "32",
        "value": "t_bool"
      },
      "t_mapping(t_address,t_mapping(t_address,t_bool))": {
        "encoding": "mapping",
        "key": "t_address",
        "label": "mapping(address => mapping(address => bool))",
        "numberOfBytes": "32",
        "value": "t_mapping(t_address,t_bool)"
      },
      "t_mapping(t_address,t_mapping(t_uint256,t_uint256))": {
        "encoding": "mapping",
        "key": "t_address",
        "label": "mapping(address => mapping(uint256 => uint256))",
        "numberOfBytes": "32",
        "value": "t_mapping(t_uint256,t_uint256)"
      },
      "t_mapping(t_address,t_uint256)": {
        "encoding": "mapping",
        "key": "t_address",
        "label": "mapping(address => uint256)",
        "numberOfBytes": "32",
        "value": "t_uint256"
      },
      "t_mapping(t_uint256,t_address)": {
        "encoding": "mapping",
        "key": "t_uint256",
        "label": "mapping(uint256 => address)",
        "numberOfBytes": "32",
        "value": "t_address"
      },
      "t_mapping(t_uint256,t_bool)": {
        "encoding": "mapping",
        "key": "t_uint256",
        "label": "mapping(uint256 => bool)",
        "numberOfBytes": "32",
        "value": "t_bool"
      },
      "t_mapping(t_uint256,t_uint256)": {
        "encoding": "mapping",
        "key": "t_uint256",
        "label": "mapping(uint256 => uint256)",
        "numberOfBytes": "32",
        "value": "t_uint256"
      },
      "t_string_storage": {
        "encoding": "bytes",
        "label": "string",
        "numberOfBytes": "32"
      },
      "t_uint256": {
        "encoding": "inplace",
        "label": "uint256",
        "numberOfBytes": "32"
      }
    }
  }
}